{
  "contractName": "Faucet",
  "abi": [
    {
      "inputs": [],
      "name": "counter",
      "outputs": [
        {
          "internalType": "int256",
          "name": "",
          "type": "int256"
        }
      ],
      "stateMutability": "view",
      "type": "function"
    },
    {
      "inputs": [],
      "name": "funds",
      "outputs": [
        {
          "internalType": "uint256",
          "name": "",
          "type": "uint256"
        }
      ],
      "stateMutability": "view",
      "type": "function"
    },
    {
      "inputs": [
        {
          "internalType": "uint256",
          "name": "value",
          "type": "uint256"
        }
      ],
      "name": "addFund",
      "outputs": [],
      "stateMutability": "nonpayable",
      "type": "function"
    }
  ],
  "bytecode": "0x60806040526103e86000557ffffffffffffffffffffffffffffffffffffffffffffffffffffffffffffffff660015534801561003a57600080fd5b506102468061004a6000396000f3fe608060405234801561001057600080fd5b50600436106100415760003560e01c8063346c96e91461004657806361bc221a14610062578063c89f2ce414610080575b600080fd5b610060600480360381019061005b9190610100565b61009e565b005b61006a6100b9565b6040516100779190610146565b60405180910390f35b6100886100bf565b6040516100959190610170565b60405180910390f35b806000808282546100af91906101ba565b9250508190555050565b60015481565b60005481565b600080fd5b6000819050919050565b6100dd816100ca565b81146100e857600080fd5b50565b6000813590506100fa816100d4565b92915050565b600060208284031215610116576101156100c5565b5b6000610124848285016100eb565b91505092915050565b6000819050919050565b6101408161012d565b82525050565b600060208201905061015b6000830184610137565b92915050565b61016a816100ca565b82525050565b60006020820190506101856000830184610161565b92915050565b7f4e487b7100000000000000000000000000000000000000000000000000000000600052601160045260246000fd5b60006101c5826100ca565b91506101d0836100ca565b9250827fffffffffffffffffffffffffffffffffffffffffffffffffffffffffffffffff038211156102055761020461018b565b5b82820190509291505056fea26469706673582212207ee61f9df4cc4a767204ee51335d7f04f4c79a77508a11ccc08970732aacae1064736f6c634300080d0033",
  "immutableReferences": {},
  "source": "// SPDX-License-Identifier: MIT\n// Tells the Solidity compiler to compile only from v0.8.13 to v0.9.0\npragma solidity ^0.8.13;\n\ncontract Faucet {\n    uint256 public funds = 1e3;\n    int public counter = -10;\n\n    function addFund(uint256 value) public {\n        funds += value;\n    }\n}",
  "sourcePath": "/home/grentank/elbrus/web3-blockchain-solidity/solidity-roadmap-nextjs/0-intro/first-app/contracts/Faucet.sol",
  "compiler": {
    "name": "solc",
    "version": "0.8.13+commit.abaa5c0e.Emscripten.clang"
  },
  "schemaVersion": "3.4.16",
  "updatedAt": "2024-08-11T16:13:57.575Z",
  "devdoc": {
    "kind": "dev",
    "methods": {},
    "version": 1
  },
  "userdoc": {
    "kind": "user",
    "methods": {},
    "version": 1
  }
}